{
  "_format": "hh-sol-artifact-1",
  "contractName": "VotingContract",
  "sourceName": "contracts/VotingContract.sol",
  "abi": [
    {
      "inputs": [],
      "stateMutability": "nonpayable",
      "type": "constructor"
    },
    {
      "inputs": [
        {
          "internalType": "address",
          "name": "user",
          "type": "address"
        }
      ],
      "name": "AlreadyRegistered",
      "type": "error"
    },
    {
      "inputs": [
        {
          "internalType": "uint256",
          "name": "id",
          "type": "uint256"
        },
        {
          "internalType": "address",
          "name": "user",
          "type": "address"
        }
      ],
      "name": "IdNotCorrect",
      "type": "error"
    },
    {
      "inputs": [
        {
          "internalType": "uint256",
          "name": "id",
          "type": "uint256"
        }
      ],
      "name": "NotEnded",
      "type": "error"
    },
    {
      "inputs": [
        {
          "internalType": "uint256",
          "name": "fees",
          "type": "uint256"
        },
        {
          "internalType": "address",
          "name": "msgSender",
          "type": "address"
        }
      ],
      "name": "NotEnoughEthSentForProposal",
      "type": "error"
    },
    {
      "inputs": [
        {
          "internalType": "address",
          "name": "user",
          "type": "address"
        }
      ],
      "name": "NotRegisteredForVoting",
      "type": "error"
    },
    {
      "inputs": [
        {
          "internalType": "uint256",
          "name": "OptionLength",
          "type": "uint256"
        },
        {
          "internalType": "address",
          "name": "msgSender",
          "type": "address"
        }
      ],
      "name": "OptionsLengthShouldBeSmaller",
      "type": "error"
    },
    {
      "inputs": [
        {
          "internalType": "address",
          "name": "user",
          "type": "address"
        },
        {
          "internalType": "uint256",
          "name": "id",
          "type": "uint256"
        }
      ],
      "name": "alreadyVoted",
      "type": "error"
    },
    {
      "inputs": [
        {
          "internalType": "uint256",
          "name": "id",
          "type": "uint256"
        }
      ],
      "name": "invalidOptionId",
      "type": "error"
    },
    {
      "inputs": [
        {
          "internalType": "uint256",
          "name": "fees",
          "type": "uint256"
        }
      ],
      "name": "lessFeeSet",
      "type": "error"
    },
    {
      "inputs": [
        {
          "internalType": "address",
          "name": "",
          "type": "address"
        }
      ],
      "name": "notOwner",
      "type": "error"
    },
    {
      "inputs": [
        {
          "internalType": "uint256",
          "name": "id",
          "type": "uint256"
        },
        {
          "internalType": "address",
          "name": "user",
          "type": "address"
        }
      ],
      "name": "notOwnerOrProposalOwner",
      "type": "error"
    },
    {
      "inputs": [
        {
          "internalType": "uint256",
          "name": "id",
          "type": "uint256"
        },
        {
          "internalType": "address",
          "name": "user",
          "type": "address"
        }
      ],
      "name": "notProposalOwner",
      "type": "error"
    },
    {
      "inputs": [
        {
          "internalType": "address",
          "name": "user",
          "type": "address"
        }
      ],
      "name": "notRegistered",
      "type": "error"
    },
    {
      "inputs": [
        {
          "internalType": "uint256",
          "name": "id",
          "type": "uint256"
        }
      ],
      "name": "ownerCannotVote",
      "type": "error"
    },
    {
      "inputs": [
        {
          "internalType": "uint256",
          "name": "id",
          "type": "uint256"
        }
      ],
      "name": "proposalEnded",
      "type": "error"
    },
    {
      "inputs": [
        {
          "internalType": "uint256",
          "name": "fee",
          "type": "uint256"
        }
      ],
      "name": "votingFeeNotEnough",
      "type": "error"
    },
    {
      "inputs": [
        {
          "internalType": "uint256",
          "name": "proposalId",
          "type": "uint256"
        }
      ],
      "name": "votingStarted",
      "type": "error"
    },
    {
      "inputs": [],
      "name": "withdrawTransactionFailed",
      "type": "error"
    },
    {
      "anonymous": false,
      "inputs": [
        {
          "indexed": true,
          "internalType": "uint256",
          "name": "_id",
          "type": "uint256"
        },
        {
          "indexed": true,
          "internalType": "address",
          "name": "owner",
          "type": "address"
        },
        {
          "indexed": false,
          "internalType": "string",
          "name": "statement",
          "type": "string"
        }
      ],
      "name": "NewProposalAdded",
      "type": "event"
    },
    {
      "anonymous": false,
      "inputs": [
        {
          "indexed": true,
          "internalType": "uint256",
          "name": "proposalId",
          "type": "uint256"
        },
        {
          "indexed": false,
          "internalType": "string[]",
          "name": "options",
          "type": "string[]"
        }
      ],
      "name": "OptionsAdded",
      "type": "event"
    },
    {
      "anonymous": false,
      "inputs": [
        {
          "indexed": false,
          "internalType": "uint256",
          "name": "proposalId",
          "type": "uint256"
        }
      ],
      "name": "ProposalEnded",
      "type": "event"
    },
    {
      "anonymous": false,
      "inputs": [
        {
          "indexed": true,
          "internalType": "address",
          "name": "user",
          "type": "address"
        },
        {
          "indexed": false,
          "internalType": "uint256",
          "name": "fees",
          "type": "uint256"
        }
      ],
      "name": "RegisteredForVote",
      "type": "event"
    },
    {
      "anonymous": false,
      "inputs": [
        {
          "indexed": false,
          "internalType": "uint256",
          "name": "newProposalFee",
          "type": "uint256"
        }
      ],
      "name": "proposalFeeUpdated",
      "type": "event"
    },
    {
      "anonymous": false,
      "inputs": [
        {
          "indexed": true,
          "internalType": "uint256",
          "name": "proposalId",
          "type": "uint256"
        },
        {
          "indexed": false,
          "internalType": "uint256",
          "name": "optionsId",
          "type": "uint256"
        },
        {
          "indexed": true,
          "internalType": "address",
          "name": "owner",
          "type": "address"
        }
      ],
      "name": "voteCasted",
      "type": "event"
    },
    {
      "anonymous": false,
      "inputs": [
        {
          "indexed": false,
          "internalType": "uint256",
          "name": "newVotingFee",
          "type": "uint256"
        }
      ],
      "name": "votingFeesUpdated",
      "type": "event"
    },
    {
      "anonymous": false,
      "inputs": [
        {
          "indexed": false,
          "internalType": "uint256",
          "name": "fundsWithdrawn",
          "type": "uint256"
        }
      ],
      "name": "withdrawedFunds",
      "type": "event"
    },
    {
      "inputs": [],
      "name": "ID",
      "outputs": [
        {
          "internalType": "uint256",
          "name": "",
          "type": "uint256"
        }
      ],
      "stateMutability": "view",
      "type": "function"
    },
    {
      "inputs": [
        {
          "internalType": "uint256",
          "name": "id",
          "type": "uint256"
        },
        {
          "internalType": "string[]",
          "name": "_options",
          "type": "string[]"
        }
      ],
      "name": "addMoreOptions",
      "outputs": [],
      "stateMutability": "nonpayable",
      "type": "function"
    },
    {
      "inputs": [
        {
          "internalType": "uint256",
          "name": "_id",
          "type": "uint256"
        },
        {
          "internalType": "uint256",
          "name": "_optionId",
          "type": "uint256"
        }
      ],
      "name": "castVotes",
      "outputs": [],
      "stateMutability": "nonpayable",
      "type": "function"
    },
    {
      "inputs": [
        {
          "internalType": "uint256",
          "name": "id",
          "type": "uint256"
        }
      ],
      "name": "disableProposal",
      "outputs": [],
      "stateMutability": "nonpayable",
      "type": "function"
    },
    {
      "inputs": [
        {
          "internalType": "uint256",
          "name": "id",
          "type": "uint256"
        }
      ],
      "name": "getProposalForUser",
      "outputs": [
        {
          "components": [
            {
              "internalType": "address",
              "name": "owner",
              "type": "address"
            },
            {
              "internalType": "string",
              "name": "proposalStatement",
              "type": "string"
            },
            {
              "components": [
                {
                  "internalType": "string",
                  "name": "name",
                  "type": "string"
                },
                {
                  "internalType": "uint256",
                  "name": "voteCount",
                  "type": "uint256"
                }
              ],
              "internalType": "struct VotingContract.Options[]",
              "name": "options",
              "type": "tuple[]"
            },
            {
              "internalType": "uint256",
              "name": "totalVotes",
              "type": "uint256"
            },
            {
              "internalType": "bool",
              "name": "hasEnded",
              "type": "bool"
            }
          ],
          "internalType": "struct VotingContract.Proposal",
          "name": "",
          "type": "tuple"
        }
      ],
      "stateMutability": "view",
      "type": "function"
    },
    {
      "inputs": [
        {
          "internalType": "uint256",
          "name": "id",
          "type": "uint256"
        }
      ],
      "name": "getProposalOptions",
      "outputs": [
        {
          "internalType": "uint256",
          "name": "",
          "type": "uint256"
        }
      ],
      "stateMutability": "view",
      "type": "function"
    },
    {
      "inputs": [
        {
          "internalType": "uint256",
          "name": "id",
          "type": "uint256"
        },
        {
          "internalType": "uint256",
          "name": "optionId",
          "type": "uint256"
        }
      ],
      "name": "getProposalOptionsName",
      "outputs": [
        {
          "internalType": "string",
          "name": "",
          "type": "string"
        }
      ],
      "stateMutability": "view",
      "type": "function"
    },
    {
      "inputs": [],
      "name": "getUsersProposalId",
      "outputs": [
        {
          "internalType": "uint256[]",
          "name": "",
          "type": "uint256[]"
        }
      ],
      "stateMutability": "view",
      "type": "function"
    },
    {
      "inputs": [
        {
          "internalType": "string",
          "name": "_proposalStatement",
          "type": "string"
        },
        {
          "internalType": "string[]",
          "name": "_options",
          "type": "string[]"
        }
      ],
      "name": "introduceProposal",
      "outputs": [],
      "stateMutability": "payable",
      "type": "function"
    },
    {
      "inputs": [],
      "name": "owner",
      "outputs": [
        {
          "internalType": "address",
          "name": "",
          "type": "address"
        }
      ],
      "stateMutability": "view",
      "type": "function"
    },
    {
      "inputs": [],
      "name": "registerForVote",
      "outputs": [],
      "stateMutability": "payable",
      "type": "function"
    },
    {
      "inputs": [
        {
          "internalType": "uint256",
          "name": "proposalId",
          "type": "uint256"
        }
      ],
      "name": "retrieveResults",
      "outputs": [
        {
          "internalType": "uint256",
          "name": "winnerId",
          "type": "uint256"
        },
        {
          "internalType": "uint256",
          "name": "winnerCount",
          "type": "uint256"
        }
      ],
      "stateMutability": "view",
      "type": "function"
    },
    {
      "inputs": [
        {
          "internalType": "uint256",
          "name": "fees",
          "type": "uint256"
        }
      ],
      "name": "updateProposalFee",
      "outputs": [],
      "stateMutability": "nonpayable",
      "type": "function"
    },
    {
      "inputs": [
        {
          "internalType": "uint256",
          "name": "fees",
          "type": "uint256"
        }
      ],
      "name": "updateVotingFees",
      "outputs": [],
      "stateMutability": "nonpayable",
      "type": "function"
    },
    {
      "inputs": [],
      "name": "withdrawFunds",
      "outputs": [],
      "stateMutability": "nonpayable",
      "type": "function"
    }
  ],
  "bytecode": "0x60806040526702c68af0bb1400006007556706f05b59d3b2000060085534801561002857600080fd5b50336000806101000a81548173ffffffffffffffffffffffffffffffffffffffff021916908373ffffffffffffffffffffffffffffffffffffffff16021790555061309f806100786000396000f3fe6080604052600436106100e85760003560e01c8063a1bd71b91161008a578063de25056211610059578063de250562146102c1578063dfe09d45146102ea578063f24606d314610328578063fcc2943714610344576100e8565b8063a1bd71b914610205578063a1ccfbbd14610242578063b3cea2171461026b578063bf0aeaef14610296576100e8565b8063610af963116100c6578063610af9631461016a5780638da2bebc146101745780638da5cb5b146101b15780639b19547d146101dc576100e8565b8063127439de146100ed5780631776f1d11461012a57806324600fc314610153575b600080fd5b3480156100f957600080fd5b50610114600480360381019061010f9190612056565b61036d565b6040516101219190612126565b60405180910390f35b34801561013657600080fd5b50610151600480360381019061014c9190612148565b610484565b005b34801561015f57600080fd5b506101686105a2565b005b61017261075f565b005b34801561018057600080fd5b5061019b60048036038101906101969190612148565b6108e9565b6040516101a891906123a6565b60405180910390f35b3480156101bd57600080fd5b506101c6610b69565b6040516101d391906123d7565b60405180910390f35b3480156101e857600080fd5b5061020360048036038101906101fe9190612056565b610b8d565b005b34801561021157600080fd5b5061022c60048036038101906102279190612148565b610f97565b6040516102399190612401565b60405180910390f35b34801561024e57600080fd5b5061026960048036038101906102649190612148565b611005565b005b34801561027757600080fd5b50610280611123565b60405161028d9190612401565b60405180910390f35b3480156102a257600080fd5b506102ab611129565b6040516102b891906124cb565b60405180910390f35b3480156102cd57600080fd5b506102e860048036038101906102e39190612708565b611200565b005b3480156102f657600080fd5b50610311600480360381019061030c9190612148565b6114f8565b60405161031f929190612764565b60405180910390f35b610342600480360381019061033d919061283e565b611939565b005b34801561035057600080fd5b5061036b60048036038101906103669190612148565b611c53565b005b6060826001548111156103b95780336040517fcca0c8450000000000000000000000000000000000000000000000000000000081526004016103b09291906128bf565b60405180910390fd5b6002600085815260200190815260200160002060020183815481106103e1576103e06128e8565b5b906000526020600020906002020160000180546103fd90612946565b80601f016020809104026020016040519081016040528092919081815260200182805461042990612946565b80156104765780601f1061044b57610100808354040283529160200191610476565b820191906000526020600020905b81548152906001019060200180831161045957829003601f168201915b505050505091505092915050565b3373ffffffffffffffffffffffffffffffffffffffff1660008054906101000a900473ffffffffffffffffffffffffffffffffffffffff1673ffffffffffffffffffffffffffffffffffffffff161461051457336040517f7da84a0600000000000000000000000000000000000000000000000000000000815260040161050b91906123d7565b60405180910390fd5b671bc16d674ec8000081101561056157806040517f481c41860000000000000000000000000000000000000000000000000000000081526004016105589190612401565b60405180910390fd5b806008819055507f7413456bc6ffc62f37990cfac54bb278b4a8d4362ad728d59c2dfb40b88890f5816040516105979190612401565b60405180910390a150565b3373ffffffffffffffffffffffffffffffffffffffff1660008054906101000a900473ffffffffffffffffffffffffffffffffffffffff1673ffffffffffffffffffffffffffffffffffffffff161461063257336040517f7da84a0600000000000000000000000000000000000000000000000000000000815260040161062991906123d7565b60405180910390fd5b6000479050670de0b6b3a76400008111610681576040517f08c379a0000000000000000000000000000000000000000000000000000000008152600401610678906129c3565b60405180910390fd5b60003373ffffffffffffffffffffffffffffffffffffffff16826040516106a790612a14565b60006040518083038185875af1925050503d80600081146106e4576040519150601f19603f3d011682016040523d82523d6000602084013e6106e9565b606091505b5050905080610724576040517fbce16d9d00000000000000000000000000000000000000000000000000000000815260040160405180910390fd5b7f308284b5e7c6049f13fcbc7435ecf1d2dda1df08ceae3ef436a23aa79852643b826040516107539190612401565b60405180910390a15050565b60003390506007543410156107ab57346040517f32debf820000000000000000000000000000000000000000000000000000000081526004016107a29190612401565b60405180910390fd5b60011515600660008373ffffffffffffffffffffffffffffffffffffffff1673ffffffffffffffffffffffffffffffffffffffff16815260200190815260200160002060009054906101000a900460ff1615150361084057806040517f45ed80e900000000000000000000000000000000000000000000000000000000815260040161083791906123d7565b60405180910390fd5b6001600660008373ffffffffffffffffffffffffffffffffffffffff1673ffffffffffffffffffffffffffffffffffffffff16815260200190815260200160002060006101000a81548160ff0219169083151502179055508073ffffffffffffffffffffffffffffffffffffffff167f437e11006dda2c5188d66b765bbcb343faea7df686acac18f4b286e233269b71346040516108de9190612401565b60405180910390a250565b6108f1611fc5565b8160015481111561093b5780336040517fcca0c8450000000000000000000000000000000000000000000000000000000081526004016109329291906128bf565b60405180910390fd5b600260008481526020019081526020016000206040518060a00160405290816000820160009054906101000a900473ffffffffffffffffffffffffffffffffffffffff1673ffffffffffffffffffffffffffffffffffffffff1673ffffffffffffffffffffffffffffffffffffffff1681526020016001820180546109bf90612946565b80601f01602080910402602001604051908101604052809291908181526020018280546109eb90612946565b8015610a385780601f10610a0d57610100808354040283529160200191610a38565b820191906000526020600020905b815481529060010190602001808311610a1b57829003601f168201915b5050505050815260200160028201805480602002602001604051908101604052809291908181526020016000905b82821015610b345783829060005260206000209060020201604051806040016040529081600082018054610a9990612946565b80601f0160208091040260200160405190810160405280929190818152602001828054610ac590612946565b8015610b125780601f10610ae757610100808354040283529160200191610b12565b820191906000526020600020905b815481529060010190602001808311610af557829003601f168201915b5050505050815260200160018201548152505081526020019060010190610a66565b505050508152602001600382015481526020016004820160009054906101000a900460ff161515151581525050915050919050565b60008054906101000a900473ffffffffffffffffffffffffffffffffffffffff1681565b81600154811115610bd75780336040517fcca0c845000000000000000000000000000000000000000000000000000000008152600401610bce9291906128bf565b60405180910390fd5b823373ffffffffffffffffffffffffffffffffffffffff166002600083815260200190815260200160002060000160009054906101000a900473ffffffffffffffffffffffffffffffffffffffff1673ffffffffffffffffffffffffffffffffffffffff1603610c7e57806040517fe70f8399000000000000000000000000000000000000000000000000000000008152600401610c759190612401565b60405180910390fd5b600660003373ffffffffffffffffffffffffffffffffffffffff1673ffffffffffffffffffffffffffffffffffffffff16815260200190815260200160002060009054906101000a900460ff16610d0c57336040517f8305f243000000000000000000000000000000000000000000000000000000008152600401610d0391906123d7565b60405180910390fd5b836002600082815260200190815260200160002060040160009054906101000a900460ff1615610d7357806040517fca3fc1f5000000000000000000000000000000000000000000000000000000008152600401610d6a9190612401565b60405180910390fd5b60006002600087815260200190815260200160002090508060020180549050851115610dd657846040517fdcfc2540000000000000000000000000000000000000000000000000000000008152600401610dcd9190612401565b60405180910390fd5b6000339050600560008273ffffffffffffffffffffffffffffffffffffffff1673ffffffffffffffffffffffffffffffffffffffff168152602001908152602001600020600088815260200190815260200160002060009054906101000a900460ff1615610e7d5780876040517fe499dacf000000000000000000000000000000000000000000000000000000008152600401610e74929190612a29565b60405180910390fd5b816002018681548110610e9357610e926128e8565b5b90600052602060002090600202016001016000815480929190610eb590612a81565b91905055506001826003016000828254610ecf9190612ac9565b925050819055506001600560008373ffffffffffffffffffffffffffffffffffffffff1673ffffffffffffffffffffffffffffffffffffffff168152602001908152602001600020600089815260200190815260200160002060006101000a81548160ff0219169083151502179055508073ffffffffffffffffffffffffffffffffffffffff16877f9cabd156ed3f6ebcc215be93f008dfe99752cab67d57455b2fb23306083f855188604051610f869190612401565b60405180910390a350505050505050565b600081600154811115610fe35780336040517fcca0c845000000000000000000000000000000000000000000000000000000008152600401610fda9291906128bf565b60405180910390fd5b6002600084815260200190815260200160002060020180549050915050919050565b3373ffffffffffffffffffffffffffffffffffffffff1660008054906101000a900473ffffffffffffffffffffffffffffffffffffffff1673ffffffffffffffffffffffffffffffffffffffff161461109557336040517f7da84a0600000000000000000000000000000000000000000000000000000000815260040161108c91906123d7565b60405180910390fd5b670de0b6b3a76400008110156110e257806040517f481c41860000000000000000000000000000000000000000000000000000000081526004016110d99190612401565b60405180910390fd5b806007819055507fe64bcb9350e57f3fb370df8c7f19ebd3915a13a570a6eccdc27cb0a4750ef207816040516111189190612401565b60405180910390a150565b60015481565b60606000611174600460003373ffffffffffffffffffffffffffffffffffffffff1673ffffffffffffffffffffffffffffffffffffffff168152602001908152602001600020611e75565b116111b4576040517f08c379a00000000000000000000000000000000000000000000000000000000081526004016111ab90612b49565b60405180910390fd5b6111fb600460003373ffffffffffffffffffffffffffffffffffffffff1673ffffffffffffffffffffffffffffffffffffffff168152602001908152602001600020611e8a565b905090565b8160015481111561124a5780336040517fcca0c8450000000000000000000000000000000000000000000000000000000081526004016112419291906128bf565b60405180910390fd5b823373ffffffffffffffffffffffffffffffffffffffff166002600083815260200190815260200160002060000160009054906101000a900473ffffffffffffffffffffffffffffffffffffffff1673ffffffffffffffffffffffffffffffffffffffff16036112f35780336040517f0cca708e0000000000000000000000000000000000000000000000000000000081526004016112ea9291906128bf565b60405180910390fd5b836002600082815260200190815260200160002060040160009054906101000a900460ff161561135a57806040517fca3fc1f50000000000000000000000000000000000000000000000000000000081526004016113519190612401565b60405180910390fd5b60006002600087815260200190815260200160002090506000855182600201805490506113879190612ac9565b9050600a60ff168111156113d45780336040517f61772ea60000000000000000000000000000000000000000000000000000000081526004016113cb9291906128bf565b60405180910390fd5b60008260030154111561141e57866040517ff47401f40000000000000000000000000000000000000000000000000000000081526004016114159190612401565b60405180910390fd5b60005b86518110156114b65782600201604051806040016040528089848151811061144c5761144b6128e8565b5b6020026020010151815260200160008152509080600181540180825580915050600190039060005260206000209060020201600090919091909150600082015181600001908161149c9190612d15565b506020820151816001015550508080600101915050611421565b50867fdf1018b00215011d2859151f71e35d26c172706723f4e7be45bd41ab26db7a3f876040516114e79190612ea9565b60405180910390a250505050505050565b600080826001548111156115455780336040517fcca0c84500000000000000000000000000000000000000000000000000000000815260040161153c9291906128bf565b60405180910390fd5b836002600082815260200190815260200160002060000160009054906101000a900473ffffffffffffffffffffffffffffffffffffffff1673ffffffffffffffffffffffffffffffffffffffff163373ffffffffffffffffffffffffffffffffffffffff161480611601575060008054906101000a900473ffffffffffffffffffffffffffffffffffffffff1673ffffffffffffffffffffffffffffffffffffffff163373ffffffffffffffffffffffffffffffffffffffff16145b156118f3576000600260008781526020019081526020016000206040518060a00160405290816000820160009054906101000a900473ffffffffffffffffffffffffffffffffffffffff1673ffffffffffffffffffffffffffffffffffffffff1673ffffffffffffffffffffffffffffffffffffffff16815260200160018201805461168c90612946565b80601f01602080910402602001604051908101604052809291908181526020018280546116b890612946565b80156117055780601f106116da57610100808354040283529160200191611705565b820191906000526020600020905b8154815290600101906020018083116116e857829003601f168201915b5050505050815260200160028201805480602002602001604051908101604052809291908181526020016000905b82821015611801578382906000526020600020906002020160405180604001604052908160008201805461176690612946565b80601f016020809104026020016040519081016040528092919081815260200182805461179290612946565b80156117df5780601f106117b4576101008083540402835291602001916117df565b820191906000526020600020905b8154815290600101906020018083116117c257829003601f168201915b5050505050815260200160018201548152505081526020019060010190611733565b505050508152602001600382015481526020016004820160009054906101000a900460ff1615151515815250509050806080015161187657856040517f59bf618c00000000000000000000000000000000000000000000000000000000815260040161186d9190612401565b60405180910390fd5b6000816040015151905060005b818110156118eb5785836040015182815181106118a3576118a26128e8565b5b60200260200101516020015111156118de57826040015181815181106118cc576118cb6128e8565b5b60200260200101516020015195508096505b8080600101915050611883565b505050611932565b80336040517f0419cef60000000000000000000000000000000000000000000000000000000081526004016119299291906128bf565b60405180910390fd5b5050915091565b6000349050600033905060085482101561198c5781816040517fcb698dca0000000000000000000000000000000000000000000000000000000081526004016119839291906128bf565b60405180910390fd5b600a8484905011156119da5783839050816040517f61772ea60000000000000000000000000000000000000000000000000000000081526004016119d19291906128bf565b60405180910390fd5b60018060008282546119ec9190612ac9565b92505081905550600060015490506000600260008381526020019081526020016000209050828160000160006101000a81548173ffffffffffffffffffffffffffffffffffffffff021916908373ffffffffffffffffffffffffffffffffffffffff1602179055508787826001019182611a67929190612ed6565b5060005b86869050811015611b4f57816002016040518060400160405280898985818110611a9857611a976128e8565b5b9050602002810190611aaa9190612fb5565b8080601f016020809104026020016040519081016040528093929190818152602001838380828437600081840152601f19601f820116905080830192505050505050508152602001600081525090806001815401808255809150506001900390600052602060002090600202016000909190919091506000820151816000019081611b359190612d15565b506020820151816001015550508080600101915050611a6b565b506001600360008573ffffffffffffffffffffffffffffffffffffffff1673ffffffffffffffffffffffffffffffffffffffff1681526020019081526020016000206000828254611ba09190612ac9565b92505081905550611bf882600460008673ffffffffffffffffffffffffffffffffffffffff1673ffffffffffffffffffffffffffffffffffffffff168152602001908152602001600020611eab90919063ffffffff16565b508273ffffffffffffffffffffffffffffffffffffffff16827e89f7d93acb226ea10cdc391ca554a66b2b4a59ef783b7b0cf0f91d4fa2d3648a8a604051611c41929190613045565b60405180910390a35050505050505050565b806002600082815260200190815260200160002060000160009054906101000a900473ffffffffffffffffffffffffffffffffffffffff1673ffffffffffffffffffffffffffffffffffffffff163373ffffffffffffffffffffffffffffffffffffffff161480611d0f575060008054906101000a900473ffffffffffffffffffffffffffffffffffffffff1673ffffffffffffffffffffffffffffffffffffffff163373ffffffffffffffffffffffffffffffffffffffff16145b15611e325781600154811115611d5e5780336040517fcca0c845000000000000000000000000000000000000000000000000000000008152600401611d559291906128bf565b60405180910390fd5b826002600082815260200190815260200160002060040160009054906101000a900460ff1615611dc557806040517fca3fc1f5000000000000000000000000000000000000000000000000000000008152600401611dbc9190612401565b60405180910390fd5b60016002600086815260200190815260200160002060040160006101000a81548160ff0219169083151502179055507fb4be0005b51dad3f40e9e40926c1619388db62bd11605f23188b2ae9ca3ffb9e84604051611e239190612401565b60405180910390a15050611e71565b80336040517f0419cef6000000000000000000000000000000000000000000000000000000008152600401611e689291906128bf565b60405180910390fd5b5050565b6000611e8382600001611ec5565b9050919050565b60606000611e9a83600001611ed6565b905060608190508092505050919050565b6000611ebd836000018360001b611f32565b905092915050565b600081600001805490509050919050565b606081600001805480602002602001604051908101604052809291908181526020018280548015611f2657602002820191906000526020600020905b815481526020019060010190808311611f12575b50505050509050919050565b6000611f3e8383611fa2565b611f97578260000182908060018154018082558091505060019003906000526020600020016000909190919091505582600001805490508360010160008481526020019081526020016000208190555060019050611f9c565b600090505b92915050565b600080836001016000848152602001908152602001600020541415905092915050565b6040518060a00160405280600073ffffffffffffffffffffffffffffffffffffffff1681526020016060815260200160608152602001600081526020016000151581525090565b6000604051905090565b600080fd5b600080fd5b6000819050919050565b61203381612020565b811461203e57600080fd5b50565b6000813590506120508161202a565b92915050565b6000806040838503121561206d5761206c612016565b5b600061207b85828601612041565b925050602061208c85828601612041565b9150509250929050565b600081519050919050565b600082825260208201905092915050565b60005b838110156120d05780820151818401526020810190506120b5565b60008484015250505050565b6000601f19601f8301169050919050565b60006120f882612096565b61210281856120a1565b93506121128185602086016120b2565b61211b816120dc565b840191505092915050565b6000602082019050818103600083015261214081846120ed565b905092915050565b60006020828403121561215e5761215d612016565b5b600061216c84828501612041565b91505092915050565b600073ffffffffffffffffffffffffffffffffffffffff82169050919050565b60006121a082612175565b9050919050565b6121b081612195565b82525050565b600082825260208201905092915050565b60006121d282612096565b6121dc81856121b6565b93506121ec8185602086016120b2565b6121f5816120dc565b840191505092915050565b600081519050919050565b600082825260208201905092915050565b6000819050602082019050919050565b61223581612020565b82525050565b6000604083016000830151848203600086015261225882826121c7565b915050602083015161226d602086018261222c565b508091505092915050565b6000612284838361223b565b905092915050565b6000602082019050919050565b60006122a482612200565b6122ae818561220b565b9350836020820285016122c08561221c565b8060005b858110156122fc57848403895281516122dd8582612278565b94506122e88361228c565b925060208a019950506001810190506122c4565b50829750879550505050505092915050565b60008115159050919050565b6123238161230e565b82525050565b600060a08301600083015161234160008601826121a7565b506020830151848203602086015261235982826121c7565b915050604083015184820360408601526123738282612299565b9150506060830151612388606086018261222c565b50608083015161239b608086018261231a565b508091505092915050565b600060208201905081810360008301526123c08184612329565b905092915050565b6123d181612195565b82525050565b60006020820190506123ec60008301846123c8565b92915050565b6123fb81612020565b82525050565b600060208201905061241660008301846123f2565b92915050565b600081519050919050565b600082825260208201905092915050565b6000819050602082019050919050565b6000612454838361222c565b60208301905092915050565b6000602082019050919050565b60006124788261241c565b6124828185612427565b935061248d83612438565b8060005b838110156124be5781516124a58882612448565b97506124b083612460565b925050600181019050612491565b5085935050505092915050565b600060208201905081810360008301526124e5818461246d565b905092915050565b600080fd5b7f4e487b7100000000000000000000000000000000000000000000000000000000600052604160045260246000fd5b61252a826120dc565b810181811067ffffffffffffffff82111715612549576125486124f2565b5b80604052505050565b600061255c61200c565b90506125688282612521565b919050565b600067ffffffffffffffff821115612588576125876124f2565b5b602082029050602081019050919050565b600080fd5b600080fd5b600067ffffffffffffffff8211156125be576125bd6124f2565b5b6125c7826120dc565b9050602081019050919050565b82818337600083830152505050565b60006125f66125f1846125a3565b612552565b9050828152602081018484840111156126125761261161259e565b5b61261d8482856125d4565b509392505050565b600082601f83011261263a576126396124ed565b5b813561264a8482602086016125e3565b91505092915050565b60006126666126618461256d565b612552565b9050808382526020820190506020840283018581111561268957612688612599565b5b835b818110156126d057803567ffffffffffffffff8111156126ae576126ad6124ed565b5b8086016126bb8982612625565b8552602085019450505060208101905061268b565b5050509392505050565b600082601f8301126126ef576126ee6124ed565b5b81356126ff848260208601612653565b91505092915050565b6000806040838503121561271f5761271e612016565b5b600061272d85828601612041565b925050602083013567ffffffffffffffff81111561274e5761274d61201b565b5b61275a858286016126da565b9150509250929050565b600060408201905061277960008301856123f2565b61278660208301846123f2565b9392505050565b600080fd5b60008083601f8401126127a8576127a76124ed565b5b8235905067ffffffffffffffff8111156127c5576127c461278d565b5b6020830191508360018202830111156127e1576127e0612599565b5b9250929050565b60008083601f8401126127fe576127fd6124ed565b5b8235905067ffffffffffffffff81111561281b5761281a61278d565b5b60208301915083602082028301111561283757612836612599565b5b9250929050565b6000806000806040858703121561285857612857612016565b5b600085013567ffffffffffffffff8111156128765761287561201b565b5b61288287828801612792565b9450945050602085013567ffffffffffffffff8111156128a5576128a461201b565b5b6128b1878288016127e8565b925092505092959194509250565b60006040820190506128d460008301856123f2565b6128e160208301846123c8565b9392505050565b7f4e487b7100000000000000000000000000000000000000000000000000000000600052603260045260246000fd5b7f4e487b7100000000000000000000000000000000000000000000000000000000600052602260045260246000fd5b6000600282049050600182168061295e57607f821691505b60208210810361297157612970612917565b5b50919050565b7f4e6f7420656e6f7567687420657468657220696e20636f6e7472616374000000600082015250565b60006129ad601d836120a1565b91506129b882612977565b602082019050919050565b600060208201905081810360008301526129dc816129a0565b9050919050565b600081905092915050565b50565b60006129fe6000836129e3565b9150612a09826129ee565b600082019050919050565b6000612a1f826129f1565b9150819050919050565b6000604082019050612a3e60008301856123c8565b612a4b60208301846123f2565b9392505050565b7f4e487b7100000000000000000000000000000000000000000000000000000000600052601160045260246000fd5b6000612a8c82612020565b91507fffffffffffffffffffffffffffffffffffffffffffffffffffffffffffffffff8203612abe57612abd612a52565b5b600182019050919050565b6000612ad482612020565b9150612adf83612020565b9250828201905080821115612af757612af6612a52565b5b92915050565b7f546865726520617265206e6f2050726f706f73616c7300000000000000000000600082015250565b6000612b336016836120a1565b9150612b3e82612afd565b602082019050919050565b60006020820190508181036000830152612b6281612b26565b9050919050565b60008190508160005260206000209050919050565b60006020601f8301049050919050565b600082821b905092915050565b600060088302612bcb7fffffffffffffffffffffffffffffffffffffffffffffffffffffffffffffffff82612b8e565b612bd58683612b8e565b95508019841693508086168417925050509392505050565b6000819050919050565b6000612c12612c0d612c0884612020565b612bed565b612020565b9050919050565b6000819050919050565b612c2c83612bf7565b612c40612c3882612c19565b848454612b9b565b825550505050565b600090565b612c55612c48565b612c60818484612c23565b505050565b5b81811015612c8457612c79600082612c4d565b600181019050612c66565b5050565b601f821115612cc957612c9a81612b69565b612ca384612b7e565b81016020851015612cb2578190505b612cc6612cbe85612b7e565b830182612c65565b50505b505050565b600082821c905092915050565b6000612cec60001984600802612cce565b1980831691505092915050565b6000612d058383612cdb565b9150826002028217905092915050565b612d1e82612096565b67ffffffffffffffff811115612d3757612d366124f2565b5b612d418254612946565b612d4c828285612c88565b600060209050601f831160018114612d7f5760008415612d6d578287015190505b612d778582612cf9565b865550612ddf565b601f198416612d8d86612b69565b60005b82811015612db557848901518255600182019150602085019450602081019050612d90565b86831015612dd25784890151612dce601f891682612cdb565b8355505b6001600288020188555050505b505050505050565b600081519050919050565b600082825260208201905092915050565b6000819050602082019050919050565b6000612e1f83836121c7565b905092915050565b6000602082019050919050565b6000612e3f82612de7565b612e498185612df2565b935083602082028501612e5b85612e03565b8060005b85811015612e975784840389528151612e788582612e13565b9450612e8383612e27565b925060208a01995050600181019050612e5f565b50829750879550505050505092915050565b60006020820190508181036000830152612ec38184612e34565b905092915050565b600082905092915050565b612ee08383612ecb565b67ffffffffffffffff811115612ef957612ef86124f2565b5b612f038254612946565b612f0e828285612c88565b6000601f831160018114612f3d5760008415612f2b578287013590505b612f358582612cf9565b865550612f9d565b601f198416612f4b86612b69565b60005b82811015612f7357848901358255600182019150602085019450602081019050612f4e565b86831015612f905784890135612f8c601f891682612cdb565b8355505b6001600288020188555050505b50505050505050565b600080fd5b600080fd5b600080fd5b60008083356001602003843603038112612fd257612fd1612fa6565b5b80840192508235915067ffffffffffffffff821115612ff457612ff3612fab565b5b6020830192506001820236038313156130105761300f612fb0565b5b509250929050565b600061302483856120a1565b93506130318385846125d4565b61303a836120dc565b840190509392505050565b60006020820190508181036000830152613060818486613018565b9050939250505056fea2646970667358221220b00cd965a92e32323ae152d51bf9d051fb7ecbc5d3856da6b34b46a1069b192664736f6c63430008180033",
  "linkReferences": {},
  "deployedLinkReferences": {}
}